:020000040800F2
:1000000000C0002005560008AD530008AF5300089B
:10001000B1530008B3530008B553000800000000B6
:10002000000000000000000000000000B7530008BE
:10003000B953000800000000BB530008BD5300087E
:100040004D5600084D5600084D5600084D56000804
:100050004D5600084D5600084D54000853540008F2
:10006000595400085F540008655400084D560008B4
:100070004D5600084D560008CD5300084D56000857
:100080004D5600084D5600084D5600084D560008C4
:10009000C15300084D5600084D5600086B54000827
:1000A0004D560008095400084D5600081554000824
:1000B00029540008E5530008355400084D5600083F
:1000C0004D5600084D5600084D5600084D56000884
:1000D0004D560008D95300084D5600084D560008EB
:1000E0008B5400084D5600084D5600084D56000828
:1000F000195400084D560008255400084D560008B4
:100100004D5600084D560008415400084D56000851
:100110004D5600084D560008F1530008FD530008E5
:100120004D5600084D5600084D5600084D56000823
:1001300000000000000000000000000000000000BF
:1001400000000000000000000000000000000000AF
:10015000000000000000000000000000000000009F
:10016000000000000000000000000000000000008F
:10017000000000000000000000000000000000007F
:10018000000000000000000000000000000000006F
:10019000000000000000000000000000000000005F
:1001A000000000000000000000000000000000004F
:1001B000000000000000000000000000000000003F
:1001C000000000000000000000000000000000002F
:1001D000000000000000000000000000000000001F
:0401E0005FF8E0F1F3
:1001E800034613F8012B002AFBD1181A013870476F
:1001F80081F0004102E000BF83F0004330B54FEAD0
:1002080041044FEA430594EA050F08BF90EA020F3C
:100218001FBF54EA000C55EA020C7FEA645C7FEACF
:10022800655C00F0E2804FEA5454D4EB5555B8BFF2
:100238006D420CDD2C4480EA020281EA030382EA63
:10024800000083EA010180EA020281EA0303362DF5
:1002580088BF30BD11F0004F4FEA01314FF4801CC8
:100268004CEA113102D0404261EB410113F0004FDA
:100278004FEA03334CEA133302D0524263EB430391
:1002880094EA050F00F0A780A4F10104D5F1200E2F
:100298000DDB02FA0EFC22FA05F2801841F100018A
:1002A80003FA0EF2801843FA05F359410EE0A5F15E
:1002B80020050EF1200E012A03FA0EFC28BF4CF08F
:1002C800020C43FA05F3C01851EBE37101F0004545
:1002D80007D54FF0000EDCF1000C7EEB00006EEB52
:1002E8000101B1F5801F1BD3B1F5001F0CD34908DC
:1002F8005FEA30004FEA3C0C04F101044FEA445233
:1003080012F5800F80F09A80BCF1004F08BF5FEAB9
:10031800500C50F1000041EB045141EA050130BD99
:100328005FEA4C0C404141EB0101013C28BFB1F5AB
:10033800801FE9D291F0000F04BF01460020B1FAF6
:1003480081F308BF2033A3F10B03B3F120020CDAC9
:100358000C3208DD02F1140CC2F10C0201FA0CF0A7
:1003680021FA02F10CE002F11402D8BFC2F1200C0C
:1003780001FA02F120FA0CFCDCBF41EA0C019040C2
:10038800E41AA2BF01EB0451294330BD6FEA04040B
:100398001F3C1CDA0C340EDC04F11404C4F12002F6
:1003A80020FA04F001FA02F340EA030021FA04F308
:1003B80045EA030130BDC4F10C04C4F1200220FA5F
:1003C80002F001FA04F340EA0300294630BD21FA9D
:1003D80004F0294630BD94F0000F83F4801306BF63
:1003E80081F480110134013D4EE77FEA645C18BF57
:1003F8007FEA655C29D094EA050F08BF90EA020FEE
:1004080005D054EA000C04BF1946104630BD91EAE5
:10041800030F1EBF0021002030BD5FEA545C05D1E8
:100428004000494128BF41F0004130BD14F5800427
:100438003CBF01F5801130BD01F0004545F0FE419B
:1004480041F470014FF0000030BD7FEA645C1ABFD0
:10045800194610467FEA655C1CBF0B46024650EA07
:10046800013406BF52EA033591EA030F41F4002133
:1004780030BD00BF90F0000F04BF0021704730B5B9
:100488004FF4806404F132044FF000054FF000018E
:1004980050E700BF90F0000F04BF0021704730B54F
:1004A8004FF4806404F1320410F0004548BF404224
:1004B8004FF000013EE700BF42004FEAE2014FEA79
:1004C80031014FEA02701FBF12F07F4393F07F4F54
:1004D80081F06051704732F07F4208BF704793F057
:1004E8007F4F04BF41F40021704730B54FF460746A
:1004F80001F0004521F000411CE700BF50EA01026D
:1005080008BF704730B54FF000050AE050EA010215
:1005180008BF704730B511F0004502D5404261EB85
:1005280041014FF4806404F132045FEA915C3FF4C6
:10053800D8AE4FF003025FEADC0C18BF03325FEA63
:10054800DC0C18BF033202EBDC02C2F1200300FA14
:1005580003FC20FA02F001FA03FE40EA0E0021FA39
:1005680002F11444BDE600BF70B54FF0FF0C4CF427
:10057800E06C1CEA11541DBF1CEA135594EA0C0FD9
:1005880095EA0C0F00F0DEF82C4481EA030621EA14
:100598004C5123EA4C5350EA013518BF52EA03354F
:1005A80041F4801143F4801338D0A0FB02CE4FF001
:1005B8000005E1FB02E506F00042E0FB03E54FF031
:1005C8000006E1FB03569CF0000F18BF4EF0010E29
:1005D800A4F1FF04B6F5007F64F5407404D25FEA25
:1005E8004E0E6D4146EB060642EAC62141EA5551D8
:1005F8004FEAC52040EA5E504FEACE2EB4F1FD0C1A
:1006080088BFBCF5E06F1ED8BEF1004F08BF5FEA97
:10061800500E50F1000041EB045170BD06F0004649
:1006280046EA010140EA020081EA0301B4EB5C04F6
:10063800C2BFD4EB0C0541EA045170BD41F48011EE
:100648004FF0000E013C00F3AB8014F1360FDEBF13
:10065800002001F0004170BDC4F10004203C35DAEF
:100668000C341BDC04F11404C4F1200500FA05F372
:1006780020FA04F001FA05F240EA020001F0004213
:1006880021F0004110EBD37021FA04F642EB060189
:100698005EEA430E08BF20EAD37070BDC4F10C04B3
:1006A800C4F1200500FA04F320FA05F001FA04F277
:1006B80040EA020001F0004110EBD37041F1000163
:1006C8005EEA430E08BF20EAD37070BDC4F120056E
:1006D80000FA05F24EEA020E20FA04F301FA05F2D6
:1006E80043EA020321FA04F001F0004121FA04F27E
:1006F80020EA020000EBD3705EEA430E08BF20EA4E
:10070800D37070BD94F0000F0FD101F00046400087
:1007180041EB010111F4801F08BF013CF7D041EA09
:10072800060195F0000F18BF704703F0004652000D
:1007380043EB030313F4801F08BF013DF7D043EADE
:100748000603704794EA0C0F0CEA135518BF95EA94
:100758000C0F0CD050EA410618BF52EA4306D1D11B
:1007680081EA030101F000414FF0000070BD50EA3A
:10077800410606BF1046194652EA430619D094EAC4
:100788000C0F02D150EA013613D195EA0C0F05D1AE
:1007980052EA03361CBF104619460AD181EA030102
:1007A80001F0004141F0FE4141F470014FF00000BA
:1007B80070BD41F0FE4141F4780170BD70B54FF055
:1007C800FF0C4CF4E06C1CEA11541DBF1CEA1355D5
:1007D80094EA0C0F95EA0C0F00F0A7F8A4EB0504B7
:1007E80081EA030E52EA03354FEA013100F08880AE
:1007F8004FEA03334FF0805545EA131343EA126377
:100808004FEA022245EA111545EA10654FEA00262B
:100818000EF000419D4208BF964244F1FD0404F5E4
:10082800407402D25B084FEA3202B61A65EB030540
:100838005B084FEA32024FF480104FF4002CB6EBFD
:10084800020E75EB030E22BFB61A754640EA0C007D
:100858005B084FEA3202B6EB020E75EB030E22BFBD
:10086800B61A754640EA5C005B084FEA3202B6EBFE
:10087800020E75EB030E22BFB61A754640EA9C00BD
:100888005B084FEA3202B6EB020E75EB030E22BF8D
:10089800B61A754640EADC0055EA060E18D04FEA4B
:1008A800051545EA16754FEA06164FEAC30343EAEB
:1008B80052734FEAC2025FEA1C1CC0D111F4801FB8
:1008C8000BD141EA00014FF000004FF0004CB6E7B1
:1008D80011F4801F04BF01430020B4F1FD0C88BF50
:1008E800BCF5E06F3FF6AFAEB5EB030C04BFB6EB5B
:1008F800020C5FEA500C50F1000041EB045170BD4E
:100908000EF0004E4EEA113114EB5C04C2BFD4EB7A
:100918000C0541EA045170BD41F480114FF0000EFE
:10092800013C90E645EA060E8DE60CEA135594EA7A
:100938000C0F08BF95EA0C0F3FF43BAF94EA0C0F7D
:100948000AD150EA01347FF434AF95EA0C0F7FF4F2
:1009580025AF104619462CE795EA0C0F06D152EA46
:1009680003353FF4FDAE1046194622E750EA41062A
:1009780018BF52EA43067FF4C5AE50EA41047FF43B
:100988000DAF52EA43057FF4EBAE12E74FF0FF3CA0
:1009980006E000BF4FF0010C02E000BF4FF0010C71
:1009A8004DF804CD4FEA410C7FEA6C5C4FEA430CEA
:1009B80018BF7FEA6C5C1BD001B050EA410C0CBF39
:1009C80052EA430C91EA030F02BF90EA020F00209B
:1009D800704710F1000F91EA030F58BF994208BF02
:1009E80090422CBFD8176FEAE37040F001007047BF
:1009F8004FEA410C7FEA6C5C02D150EA013C07D116
:100A08004FEA430C7FEA6C5CD6D152EA033CD3D060
:100A18005DF8040B704700BF8446104662468C465A
:100A28001946634600E000BF01B5FFF7B7FF00288D
:100A380048BF10F1000F01BD4DF808EDFFF7F4FFB6
:100A48000CBF012000205DF808FB00BF4DF808ED41
:100A5800FFF7EAFF34BF012000205DF808FB00BF64
:100A68004DF808EDFFF7E0FF94BF012000205DF886
:100A780008FB00BF4DF808EDFFF7CEFF94BF01203B
:100A880000205DF808FB00BF4DF808EDFFF7C4FF34
:100A980034BF012000205DF808FB00BF4A0011D2D6
:100AA80012F5001211D20DD56FF47873B3EB6252C0
:100AB8000ED44FEAC12343F0004343EA505323FACC
:100AC80002F070474FF00000704750EA013002D141
:100AD8004FF0FF3070474FF0000070470348044B59
:100AE800834202D0034B03B1184770471C02002011
:100AF8001C020020000000000548064B1B1AD90FF5
:100B080001EBA301491002D0034B03B1184770470A
:100B18001C0200201C0200200000000010B5064C3A
:100B2800237843B9FFF7DAFF044B13B10448AFF356
:100B380000800123237010BD1C020020000000006B
:100B48004CB0000808B5054B1BB105490548AFF383
:100B58000080BDE80840FFF7CFBF00BF00000000DD
:100B6800200200204CB000087047026802F10C0314
:100B780053E8003F23F490730C3242E800310268D6
:100B88000029F2D102F1140353E8003F23F00103D6
:100B980002F1140C4CE800310029F3D1036B012B4E
:100BA8000BD102F10C0353E8003F23F0100302F1CC
:100BB8000C0C4CE800310029F3D1202380F8423096
:100BC800002303637047000010B504460368C1683A
:100BD8001A6922F440520A431A6182680069D96886
:100BE8000243606921F4B05121F00C0102430A4329
:100BF800DA605A69A16922F440720A435A610E4ABE
:100C0800934215D100F0C0FD192343436268206860
:100C18009200B3FBF2F36422B3FBF2F102FB11334F
:100C28001B013233B3FBF2F303EB0113836010BDF6
:100C380000F09AFDE8E700BF0038014010B504460F
:100C480048B390F8413003F0FF021BB980F8402008
:100C580004F032FC2423226884F84130D36820460B
:100C680023F40053D360FFF7AFFF236800201A690D
:100C780022F490421A615A6922F02A025A61DA680B
:100C880042F40052DA602023606484F8413084F82A
:100C98004230606310BD0120FCE710B50446A0B1E6
:100CA8002423026880F84130D36823F40053D360CA
:100CB80004F07CFC0020606484F8400084F8410063
:100CC80084F842002063606310BD0120FCE7000047
:100CD80038B50446134694F84120202A27D141B359
:100CE8003BB300222120E384134D626484F8410061
:100CF800A06BA38421628562104DC562104DC0E9C6
:100D08000C522268043200F075FF6FF0400223682D
:100D18001A60226802F1140353E8003F43F080038D
:100D280002F1140141E800300028F3D138BD022057
:100D3800FCE70120FAE700BF4D0D00089B0D0008F5
:100D4800A50D000808B503461B68406A1B6813F028
:100D580020031AD1C384026802F1140353E8003F48
:100D680023F08003143242E8003102680029F2D1EE
:100D780002F10C0353E8003F43F0400302F10C007A
:100D880040E800310029F3D108BD05F0F3FEFBE788
:100D9800704708B5406AFFF7FBFF08BD08B5406A11
:100DA80003685A6990F84110212912D1120610D50A
:100DB8000022C28403F10C0252E8002F22F0C00284
:100DC80003F10C0C4CE800210029F3D1202280F813
:100DD80041205B6990F84220222A05D15B0603D5A1
:100DE8000023C385FFF7C1FE436C43F0100343643F
:100DF80004F0E2FC08BD08B50023406AC385C3843B
:100E080004F0DAFC08BD704790F8423007B5222B91
:100E180042D181680268B1F5805F836A3FD1016978
:100E280000293FD15268C2F3080223F8022B8362DB
:100E3800C38D013B9BB2C385002B2DD10268D168BD
:100E480021F02001D160D16821F48071D16051690D
:100E580021F001015161202280F842204363026B96
:100E6800012A026828D1036302F10C0353E8003F0A
:100E780023F0100302F10C0C4CE800310029F3D1E7
:100E88001368DB0605D50191136801935368019334
:100E9800019B818DFFF7B7FF03B05DF804FB39B9FB
:100EA800016929B95268D2B21A70836A0133BEE760
:100EB800526802F07F02F7E704F05AFCECE7000002
:100EC800036873B51A6804461607D9685D6908D1BE
:100ED800960668D58D0666D502B0BDE87040FFF766
:100EE80093BF05F0010001F4907505435BD0D60768
:100EF80005D5CD0542BF636C43F001036364530716
:100F080004D518B1636C43F002036364960704D5F3
:100F180018B1636C43F004036364150707D501F047
:100F2800200303431EBF636C43F008036364636CD0
:100F3800002B32D0920604D58B0602D52046FFF747
:100F480063FF266820467369626C03F0400302F071
:100F5800080253EA020522D0FFF707FE73695E060E
:100F680018D5226802F1140353E8003F23F0400328
:100F7800143242E800310029F3D1E06B50B1744BD0
:100F8800436300F093FE40B1E06B436B02B0BDE8F1
:100F980070401847204604F00FFC02B070BD04F002
:100FA8000BFC6564F9E7206B012840F09480D506B6
:100FB80040F19180C80640F18E80002201921A68A3
:100FC80001925A680192019A5A6952064DD5E16B0D
:100FD8000A68526892B2002ADFD0A08D9042DCD90C
:100FE800E2858A69202A36D003F10C0252E8002FE4
:100FF80022F4807203F10C0040E800210029F3D1AB
:1010080003F1140252E8002F22F0010203F1140048
:1010180040E800210029F3D103F1140252E8002F1F
:1010280022F0400203F1140040E800210029F3D126
:10103800202284F84220216303F10C0252E8002F99
:1010480022F0100203F10C0040E800210029F3D13E
:10105800E06B00F00BFE02236363E38DA18DC91AD8
:1010680089B22046FFF7CFFE97E7E28DE18D92B275
:1010780089B2002991D0A18D891A89B200298CD012
:1010880003F10C0252E8002F22F4907203F10C05D0
:1010980045E800200028F3D103F1140252E8002F9C
:1010A80022F0010203F1140545E800200028F3D1DD
:1010B800202284F84220206303F10C0252E8002F1A
:1010C80022F0100203F10C0545E800200028F3D1B6
:1010D80002236363C5E7160628D50D0626D594F8BE
:1010E8004120212A7FF459AFA168226AB1F5805FB7
:1010F80017D12169A9B932F8021BC1F30801596057
:101108002262E28C013A92B2E284002A7FF445AF6F
:10111800DA6822F08002DA60DA6842F04002DA60C7
:101128003BE7511C216212785A60EAE750067FF5C6
:1011380034AF4A067FF531AFDA68204622F0400224
:10114800DA60202384F8413005F014FD25E700BF5C
:10115800FF0D00080023C2854364222382850269AB
:1011680080F84230816203681AB1DA6842F480720A
:10117800DA605A69002042F001025A61DA6842F0E6
:101188002002DA60704770B590F84260202E07D1CF
:1011980041B13AB100240463FFF7DCFF204670BD7B
:1011A8000220FCE70120FAE77047000038B50E4B33
:1011B80005461A784FF47A73B3FBF2F30B4A1068BA
:1011C800B0FBF3F000F01CFF044658B90F2D09D806
:1011D800024629464FF0FF3000F0C2FE2046044B7D
:1011E8001D6038BD0120FCE7080000200400002035
:1011F8000C000020074A08B51368032043F01003C9
:10120800136000F09BFE0020FFF7D0FFFFF7CCFF34
:10121800002008BD00200240034A044B11681B78D7
:101228000B441360704700BF3802002008000020FC
:10123800014B1868704700BF3802002038B50446D3
:10124800FFF7F6FF0546631C1EBF044B1B78E41826
:10125800FFF7EEFF431BA342FAD338BD0800002076
:101268002DE9F341054638B30368DB0710D42B6832
:101278009F075ED42B68190700F195802B685A07E1
:1012880000F1C180EB69002B40F02C81002029E09F
:10129800904C636803F00C03042B07D0636803F0D9
:1012A8000C03082B0AD16368DE0307D523689C0367
:1012B800DDD56B68002BDAD1012013E06B68B3F53C
:1012C800803F12D1236843F480332360FFF7B0FFD7
:1012D800064623689803CAD4FFF7AAFF801B642830
:1012E800F7D9032002B0BDE8F0819BB9236823F445
:1012F80080332360236823F480232360FFF798FF5B
:10130800064623689903B2D5FFF792FF801B64282D
:10131800F7D9E6E7B3F5A02F236803D143F4802378
:101328002360CFE723F480332360236823F48023EA
:10133800CBE7684C636813F00C0F07D0636803F0C1
:101348000C03082B10D16368DA030DD423689B07BC
:1013580002D52B69012BAFD123686A6923F0F80302
:1013680043EAC203236085E72A695B4B6AB101221D
:101378001A60FFF75DFF064623689F07ECD4FFF766
:1013880057FF801B0228F7D9ABE71A60FFF750FF19
:101398000646236898077FF56DAFFFF749FF801B66
:1013A8000228F6D99DE7AA694A4E4B4BE2B10122C1
:1013B800C3F88024FFF73CFF0446736A9B070DD5EA
:1013C8004FF4FA52454B1B68B3FBF2F3019300BF8D
:1013D800019B5A1E0192002BF9D14FE7FFF728FF16
:1013E800001B0228E9D97CE7C3F88024FFF720FF17
:1013F8000446736A9F077FF541AFFFF719FF001B8B
:101408000228F6D96DE7334CE369D80024D40127C4
:10141800E36943F08053E361E36903F08053009389
:10142800009B2F4E3368D90518D5EB68012B26D1C0
:10143800236A43F001032362FFF7FAFE41F288387A
:101448000646236A9B073FD5002F3FF41BAFE3698D
:1014580023F08053E36115E70027E2E7336843F49C
:1014680080733360FFF7E4FE80463368DA05DCD426
:10147800FFF7DEFEA0EB08006428F6D931E7ABB928
:10148800236A41F2883823F001032362236A23F098
:1014980004032362FFF7CCFE0646236A9807D3D5D8
:1014A800FFF7C6FE801B4045F7D91AE7052B236ACC
:1014B80003D143F004032362BAE723F00103236254
:1014C800236A23F00403B6E7FFF7B2FE801B40450A
:1014D800B7D906E70010024000004242040000208D
:1014E800007000402A4C626802F00C02082A3ED0C4
:1014F8000022022B274B1A662CD1FFF799FE0646CD
:101508002368990120D42B6AB3F5803F05D162681E
:10151800A96822F400320A436260696A62680B4370
:1015280022F474121343012263601A4B1A66FFF700
:101538007FFE054623689A013FF5A8AEFFF778FEBF
:10154800401B0228F6D9CCE6FFF772FE801B022862
:10155800D6D9C6E6FFF76CFE054623689B017FF5E2
:1015680095AEFFF765FE401B0228F6D9B9E6012BB8
:101578003FF4A2AE60682B6A00F480329A427FF48E
:101588009BAE6B6A00F47010C01A18BF0120A9E660
:1015980000100240000042420022022330B587B00A
:1015A800CDE90332032305934FF480730B4C029368
:1015B800A3690D4643F00403A361A369084803F037
:1015C8000403019302A9019B00F068F9636823F002
:1015D800E0632B43636007B030BD00BF00100240DA
:1015E800000801400D4A536803F00C01082912D184
:1015F8000B48C3F38341DB03405C09D55368094AB0
:10160800C3F340435043084AD35CB0FBF3F0704740
:10161800064B584370470348704700BF001002400C
:101628007EB0000800127A007CB0000800093D0076
:101638002DE9F0410D46044610B90120BDE8F081BE
:10164800444A136803F007038B4228D321688E07A6
:1016580030D4CA0743D43F4A136803F00703AB42A8
:1016680065D822683C4D12F0040F6CD1130706D5DB
:101678006B68226923F4605343EAC2036B60FFF787
:10168800B1FF6B68354AC3F30313D35CD840344BBE
:101698001860344B1868FFF789FD0020CEE71368FF
:1016A80023F007030B431360136803F007038B420F
:1016B800C3D1CBE7284B11F0040F1EBF5A6842F480
:1016C800E0625A60080742BF5A6842F460525A60A2
:1016D8005A68A06822F0F00202435A60B9E76268CB
:1016E8001D4E012A33681AD113F4003FA5D0736840
:1016F80041F2883823F0030313437360FFF798FD22
:1017080007467368626803F00C03B3EB820FA2D03C
:10171800FFF78EFDC01B4045F3D903208EE7022A50
:1017280002D113F0007FE1E713F0020FDEE7136840
:1017380023F007032B431360136803F00703AB423E
:101748007FF47BAF8DE76B68E16823F4E0630B43BC
:101758006B608BE700200240001002406CB000086C
:10176800040000200C000020044B054A5B68C3F30A
:101778000223D35C034A1068D84070470010024027
:1017880064B0000804000020044B054A5B68C3F3FA
:10179800C223D35C034A1068D84070470010024047
:1017A80064B000080400002003682DE9F3410546F1
:1017B800D80720D5364CE369D9002AD40126E36935
:1017C80043F08053E361E36903F080530193019B85
:1017D800304F3B68DA051ED5236A13F440732ED1C7
:1017E800236A6A6823F44073134323621EB1E369D2
:1017F80023F08053E3612A68910706D52449A86835
:101808004B6823F4404303434B60D30637D400208E
:1018180012E00026DCE73B6843F480733B60FFF787
:1018280007FD80463B68DB05D6D4FFF701FDA0EB3A
:1018380008006428F6D9032002B0BDE8F0816A6880
:1018480002F440729A42CBD00120134A236AC2F8AC
:101858004004002023F44071DF07C2F840042162ED
:10186800BED5FFF7E5FC41F288380746236A98079A
:10187800B6D4FFF7DDFCC01B4045F7D9DBE7044AC7
:101888006969536823F480030B435360BFE700BFC3
:101898000010024000700040000042422DE9F74F5E
:1018A80000244FF00F0E2646DFF89CC1674B00F16D
:1018B80004080A6832FA06F502D103B0BDE8F08FD1
:1018C800012505FA06F702EA070537EA02027ED182
:1018D8004A68032A07D8013A022A00F28C80DFE816
:1018E80002F09A9FA500122A00F09D8071D8112A53
:1018F80000F09380FF2D94BF8146C1464FEA8602CF
:10190800D9F8007088BF203A0EFA02FA27EA0A07C7
:1019180004FA02F21743C9F80070D1F8049019F0DC
:10192800805F54D0DCF8182026F0030742F001024B
:10193800CCF81820DCF8182007F1804702F00102E3
:10194800019207F5803706F0030A019A4FEA8A0ADE
:10195800BA680EFA0AFB22EA0B0B3D4A904269D09C
:1019680002F58062904267D002F58062904265D0AD
:1019780002F58062904263D002F58062904261D0A5
:1019880002F58062904214BF0622052202FA0AF28A
:1019980042EA0B02BA609A6819F4801F14BF2A43FE
:1019A800AA439A60DA6819F4001F14BF2A43AA43AD
:1019B800DA605A6819F4003F14BF2A43AA435A60F0
:1019C8001A6819F4803F14BF2A43AA431A600136E3
:1019D8006FE7DFF880904A450DD015D8A9F5801932
:1019E8004A4508D009F570294A4504D0A9F5801957
:1019F8004A457FF47FAF8A68D2B1012A4FF00804C4
:101A08000CBF0761476175E7DFF84C904A45F2D093
:101A180009F58039ECE7CC686CE7CC68043469E7F1
:101A2800CC68083466E7CC680C3463E7002461E7C7
:101A380004245FE70022A9E70122A7E70222A5E71D
:101A48000322A3E70422A1E700100240000401409A
:101A58000008014000002210000031102DE9F74F66
:101A68004FF0040B00244FF0010A4FF00F0800EB71
:101A78000B03354A019331FA04F302D103B0BDE8F0
:101A8800F08F0AFA04F70F4051D024F0030505F14E
:101A9800804505F5803504F0030CAB684FEA8C0CE3
:101AA80008FA0CF909EA030E284B984241D003F5CD
:101AB800806398423FD003F5806398423DD003F598
:101AC800806398423BD003F58063984239D003F590
:101AD8008063984214BF0623052303FA0CF3734569
:101AE8006FEA07060FD11368334013605368334019
:101AF8005360D3683340D360936833409360AB68D6
:101B080023EA0903AB60FF2F94BF0746019F4FEA02
:101B180084033D6888BF203B08FA03FC25EA0C05CE
:101B28000BFA03F31D433D60C3683340C3600134BF
:101B3800A1E70023D1E70123CFE70223CDE7032361
:101B4800CBE70423C9E700BF0004014000080140B7
:101B58000AB1016170470904FBE70000044A08B5AF
:101B68005169014202D0506105F012F808BD00BF6A
:101B780000040140034610B580B30168184A1420D8
:101B8800914224D8174A0A44B2FBF0F21648920050
:101B9800C3E90F02022283F82120D3E9012422435A
:101BA800DC68086822431C696FF30D1022435C69E6
:101BB80022439C692243DC69224302430A600020D5
:101BC8000122986383F8200083F8212010BD074A7A
:101BD8000A44B2FBF0F206489200D9E70120F5E783
:101BE80007040240F8FFFDBF00000240F8FBFDBFFC
:101BF80000040240F0B590F82040012C34D00124B4
:101C080080F8204090F82140012CE5B24FF0000404
:101C180028D1022680F8216084630468266826F0AB
:101C280001062660D0E90F67BD40756063604368B0
:101C3800102BC36A0BBFA260A160E160E2604BB1E8
:101C4800236843F00E0300202360236843F0010358
:101C58002360F0BD236823F004032360236843F066
:101C68000A03F0E780F820400220F2E790F82120EC
:101C78000346022A06D0042282630120002283F848
:101C8800202070470268C06B116821F00E011160B6
:101C9800116821F00101116001211A6C01FA02F2A8
:101CA8004260002083F82110E8E7000008B590F8AA
:101CB8002130022B03D004238363012008BD03686D
:101CC8001A6822F00E021A601A6822F001021A60DD
:101CD800284A934224D902F56272934219D01432E9
:101CE800934218D01432934217D01432934214BF3F
:101CF8004FF480334FF480531F4A5360012380F818
:101D08002130002380F82030436B03B1984700202E
:101D1800D4E70123F0E71023EEE74FF48073EBE7F5
:101D280016498B4216D014318B4215D014318B4290
:101D380014D014318B4214D014318B4214D0143186
:101D48008B4214D0934214BF4FF480334FF080730A
:101D58000B4AD2E70123FBE71023F9E74FF480731E
:101D6800F6E74FF48053F3E74FF48033F0E74FF48E
:101D78008013EDE7800002400004024008000240A2
:101D88000000024070B40425C66B026C3468036816
:101D980095402542196855D04D0753D51A689606BF
:101DA8005EBF1A6822F004021A60604A93421FD983
:101DB80002F56272934214D01432934213D0143253
:101DC800934212D01432934214BF4FF480234FF43D
:101DD8008043574A5360C36A002B00F0A58070BC4B
:101DE80018470423F5E74023F3E74FF48063F0E74F
:101DF80050498B4216D014318B4215D014318B4286
:101E080014D014318B4214D014318B4214D01431B5
:101E18008B4214D0934214BF4FF480234FF0806359
:101E2800454AD7E70423FBE74023F9E74FF48063EB
:101E3800F6E74FF48043F3E74FF48023F0E74FF4DD
:101E48008003EDE702259540254257D08D0755D5EB
:101E58001A68940606D41A6822F00A021A60012247
:101E680080F82120314A93421ED902F562729342CA
:101E780013D01432934212D01432934211D0143238
:101E8800934214BF4FF400334FF40053284A536071
:101E9800002380F82030836A9EE70223F6E7202398
:101EA800F4E74FF40073F1E722498B4216D014315E
:101EB8008B4215D014318B4214D014318B4214D07C
:101EC80014318B4214D014318B4214D0934214BF76
:101ED8004FF400334FF00073174AD8E70223FBE7AB
:101EE8002023F9E74FF40073F6E74FF40053F3E7C4
:101EF8004FF40033F0E74FF40013EDE70825954061
:101F0800254211D009070FD5196821F00E01196073
:101F1800012303FA02F27260836380F82130002300
:101F280080F82030036B57E770BC70478000024090
:101F38000004024008000240000002400749030272
:101F4800CA6803F4E06322F4E0621204120C13433B
:101F580043F0BF6343F40033CB60704700ED00E00B
:101F6800154B30B5DC68C4F30224C4F10703251D02
:101F7800042B28BF0423062D4FF0FF3594BF0024FF
:101F8800033C05FA03F321EA0303A54022EA05020C
:101F9800A340002843EA0203ACBF00F16040074AAF
:101FA8004FEA0313DBB2ABBF00F5614000F00F004E
:101FB80080F80033135430BD00ED00E014ED00E06C
:101FC800002807DB01234109034A00F01F00834072
:101FD80042F82130704700BF00E100E000280CDB28
:101FE80001220649430900F01F008240203341F8CE
:101FF8002320BFF34F8FBFF36F8F704700E100E0DE
:102008000138B0F1807F0BD24FF0E023F021054A70
:10201800586182F823100020072298611A617047DE
:102028000120704700ED00E0F8B50446E0B190F8F3
:10203800913203F0FF021BB980F8902203F0BEFB37
:10204800032384F8913200232546637155F8040B65
:1020580000F074FE95E80E00206800F05FFE01466F
:1020680028B1022384F8913201252846F8BD20685A
:1020780000F06EFE0028F4D102460127267904F10B
:102088001003C1B28E4203F1280318D800210A4672
:1020980004F5A873C8B2864203F128031BD895E853
:1020A8000E00206800F056FE05460028D9D101230D
:1020B8006073206884F8913201F002F9D5E743E9AA
:1020C800062203F8277C03F8281C03F8252C43F87C
:1020D800102C0130D5E743E9062203F8272C03F832
:1020E800280C03F8252C43F8102C0131D2E738B519
:1020F80090F890320446012B10D0012580F89052B8
:10210800006800F012FE2946204603F05FFC2068B4
:1021180001F0D4F8002084F8900238BD0220FCE7D2
:1021280010B590F890220446012A0AD00122417382
:1021380080F89022006801F0BBF8002084F8900233
:1021480010BD0220FCE700002DE9F04F044687B0DF
:10215800006801F0B7F810F4004500F025844FF04E
:102168002809C54E2068B0F84430190402D407B0D5
:10217800BDE8F08FB0F84470B9B217F00F0740F01F
:10218800BF8011F0100126D103889BB2334043F47D
:1021980000430380B0F85030227C9BB203EBC203AB
:1021A80000EB4303B3F80434626AC3F309031A4427
:1021B800E3622046626203F054FB637B002BD1D0BC
:1021C800A26A002ACED1637B216843F08003A1F87C
:1021D8004C306273C6E70588ABB215F4006521D0B0
:1021E800B0F8503094F850219BB203EBC20300EBD7
:1021F8004303B3F80C34B4F85621C3F30903C4F805
:102208006C3104F5267101F0A4FA2268204613887F
:1022180023F070031B051B0D43F08003138003F0AC
:1022280011FB9FE71B049DD5038823F070031B0552
:102238001B0D43F080030380B0F8503094F8502110
:102248009BB203EBC20300EB4303B3F80C34C3F3B4
:102258000903C4F86C318BB1D4F8641171B1B4F8C6
:10226800562101F076FAD4F86431D4F86C21294665
:1022780013442046C4F8643103F0EAFA21680A8856
:10228800170593B23FF56EAF03F44053B3F5405FC3
:102298003FF468AFB1F8502001F20C4092B2835A73
:1022A800D4F86051C3F309033E2D83521DD9835AD4
:1022B8006F09ED0608BF07F1FF379BB243EA872392
:1022C8006FEA43436FEA53439BB283520B8823F46C
:1022D800804323F070031B041B0C83F4405343F426
:1022E800004343F080030B803CE7835A002DE7D07E
:1022F80005F001079BB207EB550543EA8523E3E7A1
:1023080030F8273019041FFA83F840F1F38030F8C9
:10231800273009FB074223F070031B051B0D43F010
:10232800800320F8273092F85C5192F85031D2F8A7
:10233800641100F5806E95B9B0F85050ADB206350D
:1023480005EBC3033EF81350C5F30905002D00F053
:10235800B6802B46B2F8562101F0FBF9AFE092F8AF
:102368005351022D40F08A8018F480450195B0F849
:1023780050504FEAC30BADB2D2F868C108F0400A1A
:102388005D443CD002353EF81550C5F30905654556
:1023980014D94FF0000CC2F868C130F8232022F499
:1023A800804222F070021204120C82F4005242F4AD
:1023B800004242F0800220F8232006E0ACEB050C36
:1023C800C2F868C1BCF1000FE7D0BAF1000F0DD018
:1023D80030F8232022F4E04222F070021204120C9A
:1023E80042F4004242F0C00220F82320002D66D0BB
:1023F800282202FB07422B46B2F85821ACE70635E3
:102408003EF81550C5F30905654514D9DDF804C033
:10241800C2F868C130F8232022F4804222F070020A
:102428001204120C82F4005242F4004242F080027C
:1024380020F8232006E0ACEB050CC2F868C1BCF11B
:10244800000FE7D0BAF1000F0DD130F8232022F4A5
:10245800E04222F070021204120C42F4004242F0F0
:10246800C00220F8232055B3282202FB07422B463E
:10247800B2F85A2170E700BF0F8FFFFF30F82350E2
:1024880025F4E04525F070052D042D0C45F4004594
:1024980045F0C00520F8235092F8505130F8253007
:1024A800ED0013F4804FB0F850309BB22B4452D05B
:1024B80002333EF81350C5F30905002D9BD109FBE3
:1024C80007F16318D3F86C212A44C3F86C21D3F8B8
:1024D80064212A44C3F86421D3F868211AB1D3F8D7
:1024E80060319D423FD209FB0743204693F85011C3
:1024F80003F0AEF918F0800F3FF434AE206809FB02
:1025080007FC30F827309BB2334043F4004320F8EF
:10251800273004EB0C03DA7C012A54D1002107FB95
:102528000992A1501A7F82B318F040085A7C34D01F
:1025380002BBB0F850201B7C92B21B0100F2044091
:1025480010441A5AC2F309021A521A5A92B242F4A1
:1025580000421A5219E006333EF81350C5F3090534
:10256800002DACD083E701F5A8712068214400F064
:10257800BFFEBFE7012A08D1B0F850201B7C92B2F9
:1025880000F204401B0110441952282303FB07439F
:10259800197C204603F065F9E4E53AB9B0F8502013
:1025A8001B7C92B21B0100F20C40C9E7012AECD156
:1025B800B0F850201B7C92B200F20C401B01104472
:1025C80023F80080E1E7197CB0F850504FEAC10ABF
:1025D800ADB218F4807B9A6A00F5806E554417D125
:1025E80002353EF81550C5F30905954202D3C3F8E4
:1025F80028B0CEE7521B9A625A6A0CF110012A449D
:102608005A62DA6A21442A44DA6200F071FEA9E5C6
:1026180018F0400C08F4804800F0E48002353EF8D9
:1026280015501FFA88F8C5F3090595422CBF0022FA
:10263800521B9A62002A55D1282303FB07435B7C6F
:10264800002B3DD1B0F8502000F2044592B20B01A6
:102658001544EA5AC2F30902EA52EA5A6FEA4242B8
:102668006FEA524292B2EA52B0F8502000F20C409F
:1026780092B21044C25AC2F30902C252C25A6FEA55
:1026880042426FEA524292B2C252204603F0E9F83F
:10269800B8F1000F00F0E480282303FB0743226809
:1026A800197C32F8213023F4E04323F070031B0433
:1026B8001B0C43F4404343F0800322F82130CFE061
:1026C800012BE2D1B0F850C000F204451FFA8CFC8F
:1026D80065440B01EA52B0F8505000F20C40ADB21C
:1026E8002844D1E7B8F1000F0DD030F8212022F4AA
:1026F800E04222F070021204120C42F4404242F00E
:10270800800220F821204FF0280E0EFB074E9EF87D
:102718003420012A40F0A480DEF8242002EB050CC6
:10272800CEF824C0DA6A2A44DA62DEF83030DEF8FD
:102738002020934231D39B1ACEF83030282303FB54
:1027480007435D7C93B2002D41D1B0F850E000F210
:1027580004451FFA8EFE7544090135F801E03E2A4A
:10276800CEF3090E25F801E023D94FEA521ED2060E
:102778006A5A08BF0EF1FF3E92B242EA8E226FEA11
:1027880042426FEA524292B26A52282202FB074240
:10279800128B614600F09CFD62E01BB92A468EF858
:1027A8003430CBE700228EF83420CEF830201A4699
:1027B800C4E70AB96A5AE2E735F801E002F001080D
:1027C8001FFA8EFE08EB52024EEA8222DBE7012D49
:1027D800DBD1B0F8505000F20442ADB22A440901EE
:1027E8005352D2E706353EF815501FFA88F8C5F35C
:1027F800090595428CBF6246521B9A62002A57D13E
:10280800282303FB07435B7C002B3FD1B0F8502003
:1028180000F2044592B20B011544EA5AC2F30902C8
:10282800EA52EA5A6FEA42426FEA524292B2EA52D6
:10283800B0F8502000F20C4092B21044C25AC2F3D1
:102848000902C252C25A6FEA42426FEA524292B237
:10285800C252204603F005F8B8F1000F3FF41CAF50
:10286800282303FB07472268397C32F8213023F4F8
:10287800E04323F040031B041B0C83F0300343F4B4
:10288800004343F0800322F821306BE4012BE0D1B0
:10289800B0F850C000F204451FFA8CFC65440B01E7
:1028A800EA52B0F8505000F20C40ADB22844CFE7DD
:1028B800B8F1000F0DD130F8212022F4E04222F0C7
:1028C80070021204120C42F4404242F0800220F8D6
:1028D80021204FF0280E0EFB074E9EF83420012AC7
:1028E800BED1DEF8242002EB050CCEF824C0DA6A4B
:1028F8002A44DA62DEF83030DEF8202093422ED304
:102908009B1ACEF83030282303FB07435D7C93B233
:10291800002D3ED1B0F850E000F20C451FFA8EFEB3
:102928007544090135F801E03E2ACEF3090E25F871
:1029380001E020D94FEA521ED2066A5A08BF0EF1AA
:10294800FF3E92B242EA8E226FEA42426FEA524258
:1029580092B26A52282202FB0742528B19E71BB92E
:102968002A468EF83430CEE70022CEF830208EF892
:1029780034201A46C7E70AB96A5AE5E735F801E08C
:1029880002F001081FFA8EFE08EB52024EEA82227C
:10299800DEE7012DDED1B0F8502000F20C4592B2EE
:1029A80015440A01AB52D5E7420512D522682046E4
:1029B800B2F8443023F480631B041B0CA2F84430A3
:1029C80002F05BFF2946204607B0BDE8F04FFFF74D
:1029D800A7BB43040AD52268B2F8443023F48043E5
:1029E8001B041B0CA2F84430FFF7C1BB870405D5B4
:1029F8002268B2F8443023F40053F1E7C60419D52D
:102A080022682046B2F8403023F004031B041B0C54
:102A1800A2F84030B2F8403023F008031B041B0C26
:102A2800A2F8403002F03AFF2268B2F8443023F4AA
:102A38008053D5E7050548D5236802AD18462946D1
:102A48001A4603F1200632F8047B964221F8027BED
:102A5800F9D1B3F8402092B242F00102A3F8402025
:102A6800B3F8402022F001021204120CA3F840200F
:102A7800B3F844205105FBD5B3F8442022F4806212
:102A88001204120CA3F8442035F8022B20F8042B6A
:102A98008642F9D1B3F84020204692B242F00802AB
:102AA800A3F84020B3F8442022F400621204120C68
:102AB800A3F84420B3F8402092B242F00402A3F8ED
:102AC800402002F0E7FEFFF752BB82050DD52268D1
:102AD8002046B2F8443023F400731B041B0CA2F800
:102AE800443002F0C6FEFFF742BBC3057FF53FAB9B
:102AF8002268B2F8443023F4807371E770B5282453
:102B0800054601F00700444311F0800F14BF04F19B
:102B1800100104F5A87105EB040615BF0124002473
:102B2800747486F8514114BF49194919022BCB70A6
:102B380008BF0023087008BF0B710A6195F890322E
:102B4800012B09D00123286885F8903200F014F988
:102B5800002085F8900270BD0220FCE7282301F0D0
:102B68000702534311F0800F10B5044618BF03F154
:102B7800100118440BBF03F5A8710123002309199C
:102B88000ABF0919437480F851310A7094F89032D9
:102B9800012B09D00123206884F8903200F04CFA08
:102BA800002084F8900210BD0220FCE770B52824AC
:102BB800002601F007014C43051985F8501185F8E6
:102BC800516104F5A8710144C5E95923C5F86C6140
:102BD800006800F08DFB304670BD282301F0070126
:102BE80003FB0100D0F86C01704770B5282501F08F
:102BF80007014D434419C4E9092301220026217421
:102C080084F83420627405F1100101442363E662FC
:102C1800006800F06DFB304670BD38B5037901F0EF
:102C28000705AB4204462AD311F0800F4FF0280362
:102C38001CD001226B4303F11001034401445A7470
:102C480001230D708B7094F890229A4219D0206855
:102C580084F8903200F0C3FA25B9206804F526718B
:102C680000F034FB002084F8900238BD00224B436A
:102C780003F5A8710344014483F85121E0E70120DA
:102C8800F3E70220F1E738B5027901F00F039A4221
:102C9800044626D3282301F00702534311F0800F7E
:102CA80014BF03F1100103F5A87118444FF0000593
:102CB80015BF012300230919091914BF437480F8AB
:102CC80051318D700A7094F89032012B0BD001238A
:102CD800206884F8903200F0A2FA284684F89052CE
:102CE80038BD0120FCE70220FAE710B5282411F0CE
:102CF800800F1BBF01F0070104FB010004FB01006A
:102D0800103008BF00F5A87099B21AB90273C180D3
:102D1800002010BD012283600273F9E784B004A883
:102D280000E90E00002004B0704703464FF43F420C
:102D38000020A3F84400A3F840207047B0F84030C2
:102D480023F47C535B045B0CA0F8403000207047F0
:102D5800002070471FB5044604A800E90E000020B3
:102D68000123A4F84030A4F84000A4F84400A4F8D3
:102D7800500004B010BD0000F0B50A78CD7830F8E6
:102D88002240034624F4EC4424F070042404240C68
:102D9800032D03D8DFE805F041494745012048F2F3
:102DA80080073C4323F8224033F822409F4EA4B2C8
:102DB800344014433C4323F822400C7B03EB021CB1
:102DC800002C40F08C80CC884F78640864007FB376
:102DD800B3F8501089B26144A1F8004433F82210C6
:102DE8004C0609D533F8221089B2314041F400412C
:102DF80041F0C00123F8221033F822108C4C89B21C
:102E0800012D01EA040101D081F0200141F40041C3
:102E180041F0800123F822104DE0284644F4007464
:102E2800BDE744F4C0640020B9E744F48064FAE7DD
:102E3800B3F85050ADB26544A5F80844B3F8504013
:102E4800A4B26444B4F80C54C5F30905A4F80C54AE
:102E58000D693E2D30D9E906B4F80C144FEA551621
:102E680008BF06F1FF3689B241EA86216FEA41417F
:102E78006FEA514189B2A4F80C1433F822104F04B8
:102E88000DD533F8221021F4E04121F07001090436
:102E9800090C41F4404141F0800123F82210654CAF
:102EA800B2B91A8892B2224082F4405242F40042E7
:102EB80042F080021A80F0BDB4F80C14002DD5D071
:102EC80005F0010689B206EB550541EA8521D1E7EF
:102ED80033F8221089B2214081F4005196E7022D7F
:102EE80033F822405BD1A4B2344044F4014444F0A6
:102EF800800423F82240B3F850400E89A4B2760823
:102F080064447600A4F800644E89B3F8504076080B
:102F1800A4B264447600A4F808644978002948D12A
:102F280033F822104E040DD533F8221021F4E04175
:102F380021F070010904090C41F4404141F080017D
:102F480023F8221033F822104D060DD533F822103D
:102F580021F4E04121F070010904090C41F4004119
:102F680041F0C00123F8221048F2800433F82210FF
:102F780021F4804121F070010904090C81F44051C9
:102F8800214323F8221033F8221021F4E04121F0E4
:102F980040010904090C0C4323F822408BE724F470
:102FA800E24424F070042404240C274323F82270FC
:102FB800A1E733F822104C040DD533F8221021F480
:102FC800E04121F070010904090C41F4404141F04D
:102FD800800123F8221033F8221049060DD533F862
:102FE800221021F4E04121F070010904090C41F498
:102FF800004141F0C00123F8221033F822100C4C94
:1030080089B22140012D18BF81F0200141F400410F
:1030180041F0800123F8221033F8221021F4804176
:1030280021F070010904090CF0E600BF8F8FFFFF43
:10303800BF8FFFFF8FBFFFFF4A780B78097BD9BB93
:103048000AB330F8232051060DD530F8232022F496
:10305800E04222F070021204120C42F4004242F0E4
:10306800C00220F8232030F8232022F4E04222F086
:1030780040021204120C42F4004242F0800220F88E
:1030880023200020704730F8232052040DD530F853
:10309800232022F4E04222F070021204120C42F4BF
:1030A800404242F0800220F8232030F8232022F406
:1030B800804222F07002DCE7002A4AD130F823204F
:1030C80051040DD530F8232022F4E04222F070029A
:1030D8001204120C42F4404242F0800220F82320ED
:1030E80030F8232052060DD530F8232022F4E04290
:1030F80022F070021204120C42F4004242F0C002A4
:1031080020F8232048F2800130F8232022F4E042FE
:1031180022F070021204120C42F4004242F0C00283
:1031280020F8232030F8232022F4804222F0700275
:103138001204120C0A4320F8232030F8232022F42A
:10314800E04222F040021204120C114320F823102E
:1031580097E730F8232051040DD530F8232022F4C6
:10316800E04222F070021204120C42F4404242F093
:10317800800220F8232030F8232052060DD530F89D
:10318800232022F4E04222F070021204120C42F4CE
:10319800004242F0C00220F8232048F2800130F8B3
:1031A800232022F4E04222F070021204120C42F4AE
:1031B800404242F0800220F8232030F8232022F4F5
:1031C800E04222F040021204120C0A4320F82320A5
:1031D80030F8232022F4804222F07002B3E74B78C3
:1031E8000A788BB130F8223023F4E04323F040030F
:1031F8001B041B0C83F0100343F4004343F08003CB
:1032080020F822300020704730F8223023F4804321
:1032180023F070031B041B0C83F48053ECE70B7B37
:103228003BBB4B780A7833B330F822305B060DD5B8
:1032380030F8223023F4E04323F070031B041B0C06
:1032480043F4004343F0C00320F82230CB78012B2D
:103258000FD030F8223023F4E04323F040031B045E
:103268001B0C83F0200343F4004343F0800320F851
:1032780022300020704730F822305B040DD530F83A
:10328800223023F4E04323F070031B041B0C43F4A7
:10329800404343F0800320F8223030F8223023F4F2
:1032A800804323F070031B041B0C83F44053DAE7BC
:1032B80011B98023A0F84C300020704700207047D7
:1032C80000207047B0F8440080B270470020704773
:1032D80000EB4200013300F580605B0800EB8303DC
:1032E800834200D1704731F8022B20F8042BF7E70E
:1032F8002DE9F0474B780446012B0D460A7B40F038
:103308001581D1F810908F6949694F4528BF4F46FC
:103318000ABBBFB2EA883B46FFF7DAFFB4F85000B1
:10332800297880B204F20442090102448F522A78B3
:1033380034F8223023F4E04323F040031B041B0C31
:1033480083F03003002043F4004343F0800324F863
:103358002230BDE8F087EB7895F800E0022B2E6A62
:103368004FEA0E1C40F0CD80B14530F82E2080F099
:10337800B18022F4E04222F070021204120C42F4EE
:10338800014242F0800220F82E2030F82E80B0F85A
:1033980050E0F61B18F040082E6201EB070ABBB29A
:1033A8001FFA8EFE4DD000F20C42724422F80C3007
:1033B8006A89FFF78DFFB14536BFF31B00233E46F0
:1033C8006A782B62C5F814A0B3B272BBB4F8502067
:1033D800287892B204F2044100011144425A3E2E68
:1033E800C2F30902425215D9F206425A4FEA561759
:1033F80008BF07F1FF3792B242EA87226FEA4242DA
:103408006FEA524292B242522A8951462046FFF749
:103418005FFF8CE7425A002EF0D006F0010792B207
:1034280007EB560642EA8622ECE7012AECD1B4F80B
:103438005000297880B204F20442090102448B52F8
:10344800E2E700F20442724422F80C302A89FFF7BE
:103458003FFFB14536BFF31B43463E466A782B62B1
:10346800C5F814A0B3B24ABBB4F85020287892B279
:1034780004F20C4100011144425A3E2EC2F30902E3
:10348800425210D9425A7709F60608BF07F1FF37AA
:1034980092B242EA87226FEA42426FEA524292B2FD
:1034A80042526A89B1E7425A002EF4D006F0010769
:1034B80092B207EB560642EA8622F0E7012AF0D1DB
:1034C800B4F85000297880B204F20C420901024491
:1034D8008B52E6E722F4E24222F070021204120C48
:1034E80042F4004242F0800220F82E20B0F850301A
:1034F80000F204429BB21A44B3B222F80C302A8973
:1035080085E730F82E20F61B2E62B0F85060520680
:10351800BBB2B6B206D500F20C42324422F80C30E7
:103528006A8974E700F204423244E6E7002A3BD194
:103538008B690969B0F850008B4284BF5A1A0B4650
:103548002978AA6180B204F20C4209010244885A1F
:103558003E2BC0F3090088521AD95809DB068B5A4A
:1035680008BF00F1FF309BB243EA80236FEA434370
:103578006FEA53439BB28B522A7834F8223023F4F3
:10358800804323F070031B041B0C83F44053D9E6DB
:103598000BB98B5AEAE7885A03F0010680B206EBAA
:1035A800530340EA8323E5E7CA78022A70D1002B47
:1035B80038D1B0F850200B7892B200F204401B01C9
:1035C8001044C25AC2F30902C2520A693E2A44D9B7
:1035D800C15A5609D70608BF06F1FF3689B241EA33
:1035E80086216FEA41416FEA514189B2C152B4F86C
:1035F800500004F20C4180B20144C85A3E2AC0F37C
:103608000900C85234D95009D606CA5A08BF00F171
:10361800FF3092B242EA80226FEA42426FEA524297
:1036280092B2CA52EB69002BA6D02A7834F822103D
:10363800480401F0400327D5002B9DD034F82230F0
:1036480023F4E04323F070031B041B0C43F40043F2
:1036580043F0C00324F822308EE7C15A002AC0D0B4
:1036680002F0010689B206EB520641EA8621BCE760
:103678000AB9CA5AD0E7C85A02F0010680B206EB66
:10368800520240EA8222CBE7002B7FF475AFD5E7E0
:10369800012A5CD18A6909698A4294BF0020501ABC
:1036A800A86188BF0A46002B7FF466AFB4F85010B3
:1036B8002B7889B204F204401B010844C15A3E2AFF
:1036C800C1F30901C1522BD9D106C15A4FEA52168A
:1036D80008BF06F1FF3689B241EA86216FEA414107
:1036E8006FEA514189B2C152B4F8500004F20C415A
:1036F80080B20144C85A3E2AC0F30900C8521AD9F8
:103708005009D206CA5A08BF00F1FF3092B242EA05
:1037180080226FEA42426FEA524292B2CA522BE7C3
:10372800C15A002ADAD002F0010689B206EB520625
:1037380041EA8621D6E70AB9CA5AEAE7C85A02F026
:10374800010680B206EB520240EA8222E5E7012038
:10375800FFE500EB4200F0B500F580605D08074624
:103768000C462E46023436B9DB0744BF30F8253004
:1037780001F81530F0BD37F8042B013E92B204F879
:10378800022C120A04F8012CECE70000036A026A12
:1037980070B522F001020262446882690D6822F065
:1037A80073022A438D6823F002032B430C4DA84271
:1037B80003D005F50065A8420BD1CD6823F00803B6
:1037C8002B4324F44074D1E90556354323F0040310
:1037D8002C43446082614A684263036270BD00BF43
:1037E800002C0140036A026A70B522F480720262FA
:1037F8004468C2690D6822F073022A438D6823F475
:10380800007343EA05230D4DA84203D005F5006572
:10381800A8420DD1CD6823F4006343EA052324F4BC
:103828004054D1E90556354323F4806344EA05142E
:103838004460C2614A68C263036270BD002C0140E3
:10384800036A026A30B522F4805202624468C2698F
:103858000D6822F4E64242EA05228D6823F40053FB
:1038680043EA0533084DA84203D005F50065A84290
:1038780004D14D6924F4804444EA85144460C2614B
:103888004A680264036230BD002C014070470000A2
:1038980090F83D30012B28D1022380F83D30036891
:1038A800DA6842F00102DA60114A934212D002F556
:1038B800006293420ED0B3F1804F0BD0A2F598323C
:1038C800934207D002F58062934203D002F58062EA
:1038D800934204D19A6802F00702062A03D01A68B4
:1038E80042F001021A60002070470120704700BFB3
:1038F800002C0140704770477047082910D004D841
:1039080041B1042909D0002070470C29FBD1036874
:10391800186C70470368586B70470368986B70475A
:103928000368D86B7047704770477047036870B575
:10393800DD681E690446B1070DD5AA070BD56FF0DF
:1039480002021A61012202779B699B0769D003F082
:1039580045F800232377710710D56A070ED56FF055
:103968000402236820461A61022222779B6913F415
:10397800407F5CD003F032F80023237733070FD55C
:1039880028070DD56FF00802236820461A61042223
:103998002277DB69990750D003F020F800232377BA
:1039A800F20610D5EB060ED56FF0100223682046FC
:1039B8001A6108222277DB6913F4407F43D003F0B1
:1039C8000DF800232377F00708D5E90706D56FF02F
:1039D8000102236820461A6103F030F8320608D540
:1039E8002B0606D56FF08002236820461A6100F086
:1039F8006AFD700608D5690606D56FF0400223688F
:103A080020461A61FFF791FFB20622D5AB0620D5F2
:103A18006FF0200223682046BDE870401A6100F06C
:103A280051BDFFF780FF2046FFF77EFF91E7FFF7C4
:103A38007AFF2046FFF778FF9EE7FFF774FF2046DE
:103A4800FFF772FFAAE7FFF76EFF2046FFF76CFF4C
:103A5800B7E770BD1D4A0368904212D002F50062B4
:103A680090420ED0B0F1804F0BD0A2F59832904220
:103A780007D002F58062904203D002F5806290423E
:103A880007D14A6823F070031343CA6823F44073CC
:103A980013434A6923F08003134303608B68C362AE
:103AA8000B688362094B984203D003F50063984280
:103AB80001D10B690363012343610369DB0742BF3B
:103AC800036923F001030361704700BF002C014024
:103AD80010B5044630B390F83D3003F0FF021BB92F
:103AE80080F83C20FFF7D2FE0223206884F83D309E
:103AF800211DFFF7AFFF0123002084F8463084F82A
:103B08003E3084F83F3084F8403084F8413084F8FF
:103B1800423084F8433084F8443084F8453084F8DF
:103B28003D3010BD0120FCE710B5044630B390F8D5
:103B38003D3003F0FF021BB980F83C20FFF7DAFEA6
:103B48000223206884F83D30211DFFF783FF0123FD
:103B5800002084F8463084F83E3084F83F3084F8FA
:103B6800403084F8413084F8423084F8433084F897
:103B7800443084F8453084F83D3010BD0120FCE71E
:103B880010B5044630B390F83D3003F0FF021BB97E
:103B980080F83C20FFF7AFFE0223206884F83D3010
:103BA800211DFFF757FF0123002084F8463084F8D1
:103BB8003E3084F83F3084F8403084F8413084F84F
:103BC800423084F8433084F8443084F8453084F82F
:103BD8003D3010BD0120FCE738B50D46044630B332
:103BE80090F83D3003F0FF021BB980F83C20FFF746
:103BF80083FE0223214684F83D3051F8040BFFF779
:103C080029FF036823F00803036003682B4303605C
:103C18000123002084F8463084F83E3084F83F3091
:103C280084F8423084F8433084F83D3038BD0120B0
:103C3800FCE70000036A026A70B522F01002026213
:103C4800446882690D6822F4E64242EA05228D68DA
:103C580023F0200343EA05130D4DA84203D005F5D0
:103C68000065A8420DD1CD6823F0800343EA05130F
:103C780024F44064D1E90556354323F0400344EA6F
:103C88008504446082614A688263036270BD00BF34
:103C9800002C014038B590F83C300446012B4FD039
:103CA8000120082A84F83C003AD006D8BAB1042A80
:103CB80026D0002384F83C3038BD0C2AF9D120687E
:103CC800FFF7BEFDC3690A6943F40063C361C369B2
:103CD80023F48063C361C36943EA02232EE02068AA
:103CE800FFF754FD83690A6943F008038361836918
:103CF80023F0040383618369134383610020D8E7B9
:103D08002068FFF797FF83690A6943F400638361BA
:103D1800836923F480638361836943EA0223ECE7C0
:103D28002068FFF75FFDC3690A6943F00803C361B0
:103D3800C36923F00403C361C3691343C361DDE7A7
:103D48000220B9E770B5056A046A154E24F001042B
:103D58000462B04284691ED006F50066B0421AD0EB
:103D6800B0F1804F17D0A6F59836B04213D006F5BB
:103D78008066B0420FD006F58066B0420BD044F0A2
:103D8800010263F3071201F00A0125F00A0319433F
:103D98008261016270BD24F003042243F1E700BF91
:103DA800002C0140F8B590F83C300546012B0C4634
:103DB80000F081800120082A85F83C005BD006D8F5
:103DC80042B3042A35D0002385F83C30F8BD0C2ACC
:103DD800F9D1D1E900272B68CE68186A196A12034D
:103DE80021F480511962D96920F4005021F44071FE
:103DF80041EA072102F4005266F30F310243D96108
:103E08001A62DA69A16822F44062DA61DA6942EA80
:103E180001224EE02868CB6806C9FFF793FF836943
:103E2800A26823F00C038361836913438361002034
:103E3800C9E72B68D1E90027186ACE68196A120108
:103E480021F010011962996920F0A00021F4407155
:103E580041EA072102F0A00266F30F31024399619B
:103E68001A629A69A16822F440629A619A6942EAE0
:103E780001229A61DBE72B68D1E90021186A1E6AE2
:103E8800E76826F480761E62DE69120226F00306D1
:103E9800314320F4007002F4007267F30711024303
:103EA800D9611A62DA69A16822F00C02DA61DA696A
:103EB8000A43DA61BBE7022088E710B584680A4341
:103EC80024F47F4442EA03222243826010BD38B5BD
:103ED80090F83C300446012B4FF0020000F08E8031
:103EE800012284F83D00206884F83C20836823F48C
:103EF8007F4323F0770383600B68602B4FD032D861
:103F0800402B64D016D8202B0DD00AD833F01001DE
:103F180009D0012384F83D30002384F83C30104652
:103F280038BD302BF5D1826822F07002134343F07C
:103F3800070328E0502BECD14A68CD68016A036A70
:103F480021F00A0123F00103036283690A4323F085
:103F5800F00343EA051383610262836823F0700368
:103F680043F057030FE0B3F5805F0DD0B3F5005F62
:103F78000CD0702BCDD1CB68D1E90121FFF79DFF83
:103F8800836843F0770383600022C2E7CB68D1E9F6
:103F98000121FFF792FF836843F48043F3E7036A44
:103FA800026A4D6822F01002C9680262826923F031
:103FB800A00322F4704243EA051342EA0132826107
:103FC8000362836823F0700343F06703DBE74A6802
:103FD800CD68016A036A21F00A0123F00103036234
:103FE80083690A4323F0F00343EA051383610262FD
:103FF800836823F0700343F04703C4E702468EE763
:1040080010B50124036A01F01F018C4023EA040360
:104018000362036A8A401A43026210BD08B529B9CF
:1040280090F83E30012B1ED0012034E0042907D13E
:1040380090F83F30012BF7D1022380F83F3015E08C
:1040480008290CBF90F8403090F84130013B18BF68
:104058000123002BE8D1022308290CBF80F8403047
:1040680080F8413002E0022380F83E3000680122E7
:10407800FFF7C6FF124B984203D003F5006398423E
:104088000AD1436C43F400434364836803F0070395
:10409800062B0FD1002008BDB0F1804FF5D0094B99
:1040A8009842F2D003F580639842EED003F580631E
:1040B8009842EAD0036843F001030360EAE700BFCF
:1040C800002C014000040040FFF7A8BF38B50022CB
:1040D800044600680D46FFF793FF1A4B984203D039
:1040E80003F5006398420DD141F21113026A1A4296
:1040F80008D140F24443026A1A4202BF436C23F4D7
:104108000043436441F21113026A1A4208D140F293
:104118004443026A1A4202BF036823F001030360A2
:1041280001231DB984F83E30002038BD042D02D18A
:1041380084F83F30F8E7082D0CBF84F8403084F845
:104148004130F1E7002C0140FFF7C0BF08B5A9BB1B
:1041580090F83E2090F84230D2B2012ADBB269D101
:10416800012B67D1022300293ED180F83E3080F828
:1041780042300068C36843F00203C3600122FFF7BE
:104188003FFF2D4B984212D003F5006398420ED0A2
:10419800B0F1804F0BD0A3F59833984207D003F5C0
:1041A8008063984203D003F5806398423DD18368C9
:1041B80003F00703062B38D1002008BD042905D1D8
:1041C80090F83F2090F84330D2B2C6E708290BBFD9
:1041D80090F8402090F8412090F8443090F845300D
:1041E8000CBFD2B2D2B2B8E7042908D180F83F3068
:1041F80080F843300068C36843F00403BDE708292A
:1042080008D180F8403080F844300068C36843F033
:104218000803B2E70C2980F8413080F8453009D10D
:104228000068C36843F01003A7E7036843F001037D
:104238000360C1E70120C0E7002C0140082938B518
:1042480004460D4630D004D851B1042927D00120A6
:1042580038BD0C29FBD10068C36823F0100303E0C4
:104268000068C36823F002030022C3602946FFF7F1
:10427800C7FE41F21113026A1A4208D140F24443C0
:10428800026A1A4202BF036823F001030360012394
:104298007DB984F83E3084F842300020D8E70068C1
:1042A800C36823F00403DFE70068C36823F008034A
:1042B800DAE7042D04D184F83F3084F84330ECE782
:1042C800082D0BBF84F8403084F8413084F844301E
:1042D80084F84530E1E710B50424036A01F00F01C2
:1042E8008C4023EA04030362036A8A401A43026289
:1042F80010BD000008B529B990F84230012B1DD037
:10430800012046E0042907D190F84330012BF7D16A
:10431800022380F8433014E0082907D190F844308C
:10432800012BEDD1022380F844300AE090F84530A3
:10433800012BE5D1022380F8453002E0022380F802
:10434800423000680422FFF7C6FF436C43F4004381
:104358004364104B984212D003F5006398420ED084
:10436800B0F1804F0BD0A3F59833984207D003F5EE
:104378008063984203D003F58063984204D1836830
:1043880003F00703062B03D0036843F0010303601F
:10439800002008BD002C014038B500220446006802
:1043A8000D46FFF798FF41F21113026A1A4208D12D
:1043B80040F24443026A1A4202BF436C23F40043AA
:1043C800436441F21113026A1A4208D140F244438D
:1043D800026A1A4202BF036823F001030360012343
:1043E8001DB984F84230002038BD042D02D184F86C
:1043F8004330F8E7082D0CBF84F8443084F8453082
:10440800F1E7FFF777BFFFF7C7BF000030B590F8B7
:104418003C300246012B4FF002002AD0136882F884
:104428003D005C680D6824F070042C4398685C605B
:10443800104CA34212D004F50064A3420ED0B3F18D
:10444800804F0BD0A4F59834A34207D004F58064BC
:10445800A34203D004F58064A34204D1496820F044
:104468008000014399600123002082F83D3082F8E2
:104478003C0030BD002C014090F83C300246012B36
:104488001ED0CB68886823F440730343486823F43C
:1044980080630343086823F400630343086923F433
:1044A80080530343486923F4005303430020C96938
:1044B80023F480430B4311684B6482F83C00704737
:1044C800022070477047704708B580B1D0F8B43201
:1044D80013B10023C0F8B43209B1C0F8B0120123F7
:1044E800027080F89C3201F0DDF9002008BD02203E
:1044F800FCE719B1C0F8B4120020704702207047D9
:1045080008B501F00DFA002008BD08B5D0F8B4329E
:1045180033B11B689847003818BF0120400008BD18
:104528000220FCE708B5D0F8B4325B689847002051
:1045380008BD38B500F52A750446284600F006FB84
:10454800012394F8A812C4F89432B4F8AE32C4F82F
:10455800983201F01F03012B08D0022B0BD07BB936
:104568002946204600F0FAF8002038BD29462046A2
:1045780000F03CFAF8E72946204600F05BFAF3E73A
:10458800204601F0800101F0E3F9EDE770B504463B
:10459800164639BBD0F89422032A1CD1D0E95853C7
:1045A8009D420BD9ED1AAB4228BF2B463146C0F8C5
:1045B80060519AB200F01EFB002070BDD0F8B432F2
:1045C8001B6923B190F89C22032A00D19847204602
:1045D80000F018FBF0E7052AEED1C4F8941201F0B8
:1045E800B7F9E9E7D0F8B4329B692BB190F89C226F
:1045F800032A01D19847DFE70220DEE7F8B5044631
:1046080013460F46002949D1D0F89422022A3AD1FC
:10461800D0E90856B54211D9AD1B19460562AAB2B0
:1046280000F0D3FA3B461A461946204601F0BDF978
:1046380094F8A032012B2DD00020F8BDC369B3FB3C
:10464800F6F506FB153565B99E420AD8D0F89822CA
:10465800934206D22A4600F0B8FA2B46C4F898527C
:10466800E1E7D4F8B432DB682BB194F89C22032A32
:1046780001D1204698478021204601F069F920465B
:1046880000F0CBFAD4E732F00403D1D1802101F055
:104698005FF9CDE7002384F8A032CDE7D0F8B43233
:1046A8005B692BB190F89C22032A01D19847C3E794
:1046B8000220C2E7002270B50446012540261146B3
:1046C800402301F034F93346802100222046C4F803
:1046D8005851C4F8646101F02AF90021D4F8B832BD
:1046E800A561666284F89C52C4F894126160C4F8AB
:1046F800A41223B1D4F8B43220465B68984700204E
:1047080070BD01740020704790F89C3280F89D328B
:10471800042380F89C320020704790F89C32042BC8
:1047280004BF90F89D3280F89C320020704708B58D
:1047380090F89C22032A04D1D0F8B432DB6903B183
:104748009847002008BD10B50446802101F000F903
:104758002046BDE81040002101F0FAB837B50B78C3
:10476800044603F06003202B0D4606D0402B04D0EE
:1047780063B12046FFF7E7FF05E0D4F8B4322946D5
:1047880020469B689847002003B030BD4B78092B22
:10479800EFD801A252F823F0A3490008D94900082C
:1047A8007B470008CB4900087B470008C948000838
:1047B800C94700087B470008734900080B490008EF
:1047C8000023ADF806304B881A0A013A062AD0D8D9
:1047D80001A151F822F000BFFD4700082148000858
:1047E8003B4800087B4700087B4700087F480008D3
:1047F80095480008D0F8B0321B68207C0DF10601FE
:104808009847BDF80620002A55D0EB88002B49D1DF
:10481800204600F0F7F9B6E7027CD0F8B43232B996
:104828009B6A0DF10600984702234370E9E7DB6AAB
:10483800F7E7DBB2052B9CD8DFE803F003090D117D
:104848001519D0F8B0325B68002BD6D191E7D0F8B3
:10485800B0329B68F8E7D0F8B032DB68F4E7D0F8FC
:10486800B0321B69F0E7D0F8B0325B69ECE7D0F8FA
:10487800B0329B69E8E7037C002B7FF47AAFD0F86D
:10488800B4320DF106005B6B9847BAE7037C002B46
:104898007FF46FAFD0F8B4320DF106001B6B984768
:1048A8000723C2E79A4228BF1A4601462046ADF8B8
:1048B800062000F07DF9EB88002B7FF464AFA7E7B2
:1048C8008B88002B7FF455AFCB88002B7FF451AF3A
:1048D8004D887F2D3FF64DAF90F89C32032B3FF467
:1048E80048AFEDB2294680F89E5201F050F82046B4
:1048F80000F088F91DB1022384F89C3243E70123B4
:10490800FAE78978384D012929703FF632AF90F8D7
:104918009C32022B08D0032B15D0FFF714FF20463A
:104928002978FFF7FFFD2EE700293FF471AF012139
:104938000323416080F89C322046FFF7E6FD0228F9
:104948007FF466AF15E731B90223416080F89C32E5
:10495800FFF7E8FD5CE7416801293FF459AFC9B2A8
:10496800FFF7E0FD29786160E6E7CA88012A7FF44D
:1049780000AF90F89C32022B0AD8002B3FF4F9AE16
:104988000146002341F8083F204600F011F9FAE6F5
:10499800032B7FF4EEAE011DF6E790F89C32013B45
:1049A800022B3FF6E6AECA88022A7FF4E2AED0F8C0
:1049B800A4320146002B0CBF0123032341F80C3F0E
:1049C800E2E74B88012B7FF4DEAEC4F8A4321FE780
:1049D80090F89C32013B022B3FF6CBAE4B88012B63
:1049E8007FF4D1AE0023F0E73C02002038B50B7805
:1049F800044603F060025B060D4601D5402A15D136
:104A080094F89C32013B022B10D82B79012B0DD83E
:104A1800D4F8B43229469B6820469847EB881BB9DE
:104A280010B9204600F0EEF8002038BD2046FFF708
:104A38008AFEF9E738B50A78044602F06002202AAF
:104A48000B4606D0402A04D05AB12046FFF77BFE19
:104A580005E0D4F8B4221946204692689047002011
:104A680038BD5A788D88012A097935D0032A21D092
:104A7800002AEAD190F89C32022B44D0032BE4D1CF
:104A8800142201F00F0315F0800F02FB03034BD033
:104A98009B69002BD9D0142501F07F0303FB055532
:104AA800802905444BD0204600F060FF00284BD0F9
:104AB800012345E090F89C22022A1BD0032AC4D186
:104AC8005A882AB94A0603D0DB880BB900F040FFA0
:104AD800204600F097F8C2E790F89C22022A09D0F5
:104AE800032AB2D15B88002BB9D14D06F0D000F073
:104AF80036FFEDE74B06A8D000F02AFF80212046BC
:104B080000F026FFABE74A069FD12B064FF00003C3
:104B18004FF002024CBF00F1140100F5AA710B60BE
:104B2800204600F045F89AE7D3F85831002B8CD08E
:104B3800142505FB010505F5AA750029B3D1002345
:104B48002B6002222946EBE72860FAE70B7803700E
:104B58004B7843704B8843808B888380CB88C38095
:104B6800704710B50446802100F0F2FE2046BDE8EB
:104B78001040002100F0ECBE70B50D461646044604
:104B880070B1FBF72DFBC3B201335B0033802B7090
:104B9800032300206B700223013C14F8011F01B9A4
:104BA80070BD5A1CE954D2B20233DBB2A854F4E700
:104BB8001346022210B5C0E90733C0F894220A460A
:104BC800002100F0EBFE002010BD08B513460A4690
:104BD800002100F0E3FE002008BD1346032210B5B3
:104BE800C0E95733C0F894220A46002100F0DDFEE0
:104BF800002010BD08B513460A46002100F0D5FE76
:104C0800002008BD08B50423C0F8943200231A46D2
:104C1800194600F0C3FE002008BD08B50523C0F8FA
:104C2800943200231A46194600F0BFFE002008BD42
:104C3800D0F8BC3210B56BB1D0F8B84294F8000285
:104C4800FF2807D09B68214694F801229847FF2344
:104C580084F80032002010BD4323038000487047C9
:104C68005400002043230380004870479800002028
:104C78004323038000487047100000200A23038064
:104C8800004870471401002038B50446D0F8B852DF
:104C980000F092FED4F8B832C5F80C024BB1D4F843
:104CA800BC32D5F80402DB6805F50371984700208B
:104CB80038BD0220FCE7F8B5D0F8B862CEB11424AC
:104CC80004FB0104E36983B12827D0F8C02207FB5D
:104CD8000122126AB3FBF2F502FB15332BB91A460F
:104CE800E36100F05BFE0020F8BD0023C6F8143233
:104CF800F9E70220F8E70023F7B50F788DF80530BB
:104D0800ADF8063017F0600304460D46D0F8B862D7
:104D180022D0202B3AD1CA884B78BAB139060BD5A4
:104D2800D0F8BC1218468F683146B847314620463D
:104D3800EA88FFF73DFF06E0314686F8003286F83C
:104D48000122FFF74AFF002003B0F0BDD0F8BC02F3
:104D580084681846A047F6E74B780A2B0AD00B2B35
:104D680010D09BB990F89C32032B0FD102220DF181
:104D78000601DEE790F89C32032B07D101220DF1E2
:104D88000501D6E790F89C32032BDCD02046294653
:104D9800FFF7E7FE0220D7E738B504460025812152
:104DA80000F0CFFD01212046E56200F0CAFD822116
:104DB8002046C4F86C5100F0C4FDD4F8B83225641C
:104DC8004BB1D4F8BC325B689847D4F8B80200F00D
:104DD800FBFDC4F8B852002038BD70B5037C04460A
:104DE800A3BB4FF400738121022200F0A0FD012132
:104DF8004FF40073E16201250222204600F097FD7E
:104E08000823032282212046C4F86C5100F08FFD4C
:104E18004FF40770256400F0D3FD0646C4F8B802C5
:104E2800F8B1D4F8BC321B6898470023C6F814328E
:104E3800C6F81832237CD6F8042283B94FF40073DD
:104E48002946204600F0B1FD002070BD4023812195
:104E5800022200F06CFD01214023E162CBE74023F0
:104E6800EEE72846F1E719B1C0F8BC1200207047F8
:104E780002207047D0F8B8320020C3F80812C3F8EF
:104E880010227047D0F8B8320020C3F804127047D7
:104E9800D0F8B82210B582B1D2F81442012374B9FF
:104EA800C2F81432D2F8103281210363D2F80822F2
:104EB8009BB200F073FD204610BD0220FCE71846A7
:104EC800FAE7D0F8B82208B562B1037CD2F8042218
:104ED80033B94FF40073012100F067FD002008BDCD
:104EE8004023F8E70220FAE7F0B50268537A52F84F
:104EF8002340214621B9117A022910D11372F0BD3D
:104F08004D7A022DF7D091F808C0C5F101072E4659
:104F1800BC4508BF02250D7251F82610EAE78B42FE
:104F280001D00223EAE7002CE9D0667AC3F1010533
:104F38009E4254F8251009D142F823100223026832
:104F480044F82520137204602372D8E70029D6D0CC
:104F58004A7A022A22D0934214BF1E46022626729B
:104F680051F82360022A44F82560046854F8234065
:104F780041F8234005D0934212BF0222C3F1010237
:104F8800D2B20468227251F8252044F8232003681D
:104F980041F82530022301600B72B0E71646DEE7C0
:104FA80030B59BB01422002112A805F0ECFF1422A2
:104FB800102400210DEB020005F0E5FF1822002166
:104FC8000AA805F0E0FF2246002101A805F0DBFF52
:104FD80002254FF480330122CDE91753CDE9102380
:104FE8004FF4E01310A814921993FCF739F900B1A3
:104FF800FEE70F23CDE905354FF480630790CDE92F
:105008000830294605A8FCF713FB00B1FEE70F900E
:105018000AA80A94FCF7C8FB044600B1FEE702465A
:105028004FF0E061FCF7B8FA0A4B0B489A6901A9FE
:1050380042F004029A619B69CDE9034503F0040339
:105048000093009B4FF48073CDE90135FCF726FCF3
:105058001BB030BD001002400008014008B50D4AE1
:105068000D4B4FF4E13113600023C2E90113C2E98B
:10507800033393610C2310465361FBF7DFFD00B146
:10508800FEE7012205490348FCF77DF800B1FEE779
:1050980008BD00BF9005002000380140E805002049
:1050A80008B50B4A0B4B1046136041F28733D360A7
:1050B800472353600023136193609361FEF708FD53
:1050C80000B1FEE70248FEF7E3FB00B1FEE708BDCA
:1050D8004805002000040040FEE7F8B50C680346C8
:1050E80000250846002C43D09968D2F80CC0267ACF
:1050F800022E18BF2146E66866450CD816D3022151
:105108006172DB68996821B15868013910605A608A
:1051180099602046F8BD0027677254F827603EB1B1
:10512800377A022F18BF25463446E0E70127F3E710
:10513800C2E9006640F20226168144F827201A6860
:1051480001321A60627A54F822400029E1D05DB930
:105158009A688A4204D103F10800FFF7C5FED8E730
:1051680003688B42D5D1F8E7687A05EB8000F4E74D
:10517800C2E90055144640F2022222811A680C60E6
:1051880001321A60C5E72DE9F04183680D684BBB11
:10519800C1688C684E69B4422CD2CA6896420CD950
:1051A800D1F81080D1F800E008FB02FC0EEB0C07E8
:1051B800474401324EF80C70CA604A680134A6426E
:1051C80088BF13688C604B60012313600023D5608F
:1051D800136100F10801FFF780FF034603F1100097
:1051E800BDE8F081DA68954201D21B68CFE7F5D9AE
:1051F8005B68CCE7DD60FFDE37B515491548FFF77A
:10520800C2FF00250468144B2046CDE900552360F1
:1052180005F058FC40F2CF232046C4E90155E3606D
:10522800A561FEF755FC00B1FEE7CDE9000069462F
:105238002046FFF7EBF8024600B1FEE705213620CD
:10524800FCF78EFE2046FEF723FB03B030BD00BFFF
:1052580094B00008284B00200010004037B51949C9
:105268001948FFF790FF00250468184B2046CDE940
:105278000055236005F026FC40F27F43C4E9013560
:105288004FF223432046E360A561FEF721FC00B1FD
:10529800FEE708212046FEF79FFC00B1FEE7CDE9B6
:1052A800000069462046FFF7B1F8024600B1FEE764
:1052B80001463720FCF754FE3720FCF781FE03B087
:1052C80030BD00BF90B00008284B002000140040FB
:1052D8001FB5FBF78FFFFFF763FE00222849294817
:1052E800FFF7F2F828492748FFF703F92749254827
:1052F800FFF7B9FD2348FFF703F9FFF7AFFEFFF704
:10530800CFFEFFF779FFFFF7A9FF214B214D9A69DF
:10531800214C42F004029A619A6902F00402009258
:10532800009A9A6942F008029A619A6902F00802A2
:105338000192019A9A6942F010029A619A6902F000
:1053480010020292029A9A6942F020029A619B69BD
:1053580003F020030393039B05F03CFD2B78012BFE
:1053680004D10E4800F076FE00232B702378012B21
:10537800F4D10B4800F06EFE00232370EEE700BF67
:105388006C01002040020020DC00002020010020E9
:1053980000100240DD050020DC050020E815002093
:1053A800E80500207047FEE7FEE7FEE7FEE77047E6
:1053B80070477047FBF730BF0148FCF7C5BE00BF18
:1053C80018200020014B986BFCF7DCBC90050020EE
:1053D8000148FBF775BD00BF900500200148FEF7A6
:1053E800A5BA00BF480500200148FEF79FBA00BFD4
:1053F800885000200148FEF799BA00BF40500020AD
:105408000148FEF793BA00BFF0510020FFF7F8BF3C
:105418000148FEF78BBA00BFF84F0020FFF7F8BF2E
:105428000148FEF783BA00BFA85100200148FEF7E3
:105438007DBA00BF185100200148FEF777BA00BFB7
:10544800D05000200120FCF789BB0220FCF786BB66
:105458000420FCF783BB0820FCF780BB1020FCF776
:105468007DBB08B52020FCF779FB4020FCF776FBD4
:105478008020FCF773FBBDE808404FF48070FCF710
:105488006DBB08B54FF48060FCF768FB4FF4006013
:10549800FCF764FB4FF48050FCF760FB4FF40050BE
:1054A800FCF75CFB4FF48040FCF758FBBDE8084074
:1054B8004FF40040FCF752BBF0B5384C8BB0A369F1
:1054C8004FF4007243F00403A361A369012103F0C0
:1054D80004030193019BA369074643F00403A361F6
:1054E800A3692F4803F004030293029BA3690026D3
:1054F80043F48043A361A3692A4D03F480430393D3
:10550800039B636943F001036361636903F001036B
:105518000493049B0223CDE906230323CDE9081352
:1055280006A9FCF7BBF94FF4806306A91C48CDE92E
:105538000636FCF7B3F9324604212520FCF710FDA6
:105548002520FCF73DFD10231748C5E90566C5E988
:10555800000380232846C5E90336AE60EE61FCF7F8
:1055680009FB324605210E20BD636F62FCF7F8FC8B
:105578000E20FCF725FDE369324643F00203E361A0
:10558800E369052103F0020305931D20059BFCF741
:10559800E7FC1D20FCF714FD0BB0F0BD0010024025
:1055A80000080140040500204400024010B5114CD9
:1055B8004FF40071E368104843F48043E360E36804
:1055C80023F48043E360FCF749FA4FF480610A480A
:1055D800FCF744FA2520FCF701FD0E20FCF7FEFC41
:1055E800E36843F48043E360E36823F48043E360C3
:1055F80010BD00BF0010024000080140FBF7B4FADC
:105608000B480C490C4A002302E0D458C450043318
:10561800C4188C42F9D3094A094C002301E01360ED
:105628000432A242FBD305F0BDFCFFF751FE7047E0
:10563800000000201C020020ACB700081C0200205B
:1056480070530020FEE7000008B50A68044B0548BF
:105658001A600122044B1A70FFF733FC002008BDC2
:10566800E405002040020020DD05002008B50448BC
:10567800FBF713FB08B1FFF72FFD002008BD00BFA3
:1056880090050020202810B503D0212844D0002000
:1056980010BD0B68294C2A4823600B7923714B797C
:1056A80063718B79A371FBF7F8FA08B1FFF714FD62
:1056B8002379234AA3F1020CDCF1000343EB0C032A
:1056C8005B03D3606379012B21D0981E4342434189
:1056D8009B02A179136108291CD1003B18BF012343
:1056E8001B0393602368002153600C231448C2E90C
:1056F8000531FBF7A3FA08B1FFF7EEFC114B12498D
:105708001B68012219440E48FBF73DFDBFE74FF423
:10571800C063DEE70023E4E7084B1A680A701A68DA
:10572800120A4A705A888A70DA78CA701A790A7125
:105738005A794A719B798B71A9E700BF3001002023
:1057480090050020D8050020E805002008B50022B3
:1057580004490548FFF78EFB04490348FFF792FB0D
:10576800002008BDE80D002040020020E8150020B8
:1057780070B50D4C0D4E22680546531CB25C236073
:105788000A2A09D101220A490A700A490B60002332
:1057980031462360FBF7F7FC216828463144012293
:1057A800BDE87040FBF7EFBCD8050020E8050020F5
:1057B800DC050020E0050020FFF78EBC30B51E4C4C
:1057C80089B0A369002543F00403A361A3690122FA
:1057D80003F004030193019B4FF4C053CDE9043552
:1057E800032304A91548CDE90623FCF757F8A36954
:1057F8004FF4804143F00803A361A369104803F004
:1058080008030293029B1123CDE9041304A9FCF7B2
:1058180045F8E3692A4643F40003E361E369072195
:1058280003F4000303931420039BFCF799FB142053
:10583800FCF7C6FB09B030BD00100240000801406B
:10584800000C014000F52671D0F8D402FEF771BEB5
:10585800282303FB0103D0F8D402D3F86421FEF710
:1058680095BE282303FB0103D0F8D4025A6AFEF739
:10587800C5BED0F8D402FEF75ABF10B504460121C0
:10588800D0F8D402FEF73DFFD4F8D402BDE81040AA
:10589800FEF710BFD0F8D402FEF736BFD0F8D40216
:1058A800FEF73BBF38B504461B4B1C480025036078
:1058B800082303710223C0F8D442C4F8C00203725B
:1058C80083718572FCF7B0FB2A4629464023D4F839
:1058D800C002FDF70AFA80232A461946D4F8C00206
:1058E800FDF703FA2A46C0238121D4F8C002FDF748
:1058F800FCF92A464FF488730121D4F8C002FDF759
:10590800F4F94FF480732A468221D4F8C002FDF7D7
:10591800ECF9284638BD00BF005C00401820002084
:1059280008B5D0F8C002FCF7E2FB002008BD10B5AE
:105938001446D0F8C0021A462346FDF7DFF80020C7
:1059480010BD08B5D0F8C002FDF708F9002008BD61
:1059580008B5D0F8C002FDF760F9002008BD08B509
:10596800D0F8C002FDF78FF9002008BD282211F0F9
:10597800800FD0F8C0321BBF01F07F0102FB01335A
:1059880002FB0133987C08BF93F85201704708B5B1
:10599800D0F8C002FCF7C4FB002008BD08B5D0F859
:1059A800C002FDF722F9002008BD08B5D0F8C002F2
:1059B800FDF7FCF8002008BDD0F8C002FDF70DB9CE
:1059C80000487047E81D00207047000029B10022F8
:1059D8004FF480410248FCF7BBB80122F8E700BF4A
:1059E800000C0140122301480B8070475801002029
:1059F800042301480B80704754010020002370B530
:105A08001E464D1C040FB0F1204F34BF30343734DC
:105A180001F8134005F813600133DCB2A2424FEAE3
:105A28000010EFD870BD00001A2310B50B800A4B88
:105A3800D3F8E807D3F8F02780180AD0D3F8EC4752
:105A480006490822FFF7DAFF042220461031FFF743
:105A5800D5FF034810BD00BF00F0FF1F3A0100202A
:105A68003801002008B50A4602480349FFF784F8C0
:105A7800014808BD98B00008F022002008B50A4681
:105A880002480349FFF778F8014808BDB9B0000893
:105A9800F022002008B50A4602480349FFF76CF8CF
:105AA800014808BDCCB00008F022002008B50A461D
:105AB80002480349FFF760F8014808BDD7B000085D
:105AC800F02200200B6802680360587AC0F10100D8
